{
  "contractName": "DVideo",
  "abi": [
    {
      "inputs": [],
      "payable": false,
      "stateMutability": "nonpayable",
      "type": "constructor"
    },
    {
      "anonymous": false,
      "inputs": [
        {
          "indexed": false,
          "internalType": "uint256",
          "name": "id",
          "type": "uint256"
        },
        {
          "indexed": false,
          "internalType": "string",
          "name": "videoHash",
          "type": "string"
        },
        {
          "indexed": false,
          "internalType": "string",
          "name": "title",
          "type": "string"
        },
        {
          "indexed": false,
          "internalType": "address",
          "name": "author",
          "type": "address"
        }
      ],
      "name": "VideoUpload",
      "type": "event"
    },
    {
      "constant": true,
      "inputs": [],
      "name": "name",
      "outputs": [
        {
          "internalType": "string",
          "name": "",
          "type": "string"
        }
      ],
      "payable": false,
      "stateMutability": "view",
      "type": "function"
    },
    {
      "constant": true,
      "inputs": [],
      "name": "videoCount",
      "outputs": [
        {
          "internalType": "uint256",
          "name": "",
          "type": "uint256"
        }
      ],
      "payable": false,
      "stateMutability": "view",
      "type": "function"
    },
    {
      "constant": true,
      "inputs": [
        {
          "internalType": "uint256",
          "name": "",
          "type": "uint256"
        }
      ],
      "name": "videos",
      "outputs": [
        {
          "internalType": "uint256",
          "name": "id",
          "type": "uint256"
        },
        {
          "internalType": "string",
          "name": "videoHash",
          "type": "string"
        },
        {
          "internalType": "string",
          "name": "title",
          "type": "string"
        },
        {
          "internalType": "address",
          "name": "author",
          "type": "address"
        }
      ],
      "payable": false,
      "stateMutability": "view",
      "type": "function"
    },
    {
      "constant": true,
      "inputs": [
        {
          "internalType": "string",
          "name": "_hash",
          "type": "string"
        }
      ],
      "name": "getVideo",
      "outputs": [
        {
          "internalType": "string",
          "name": "",
          "type": "string"
        },
        {
          "internalType": "string",
          "name": "",
          "type": "string"
        }
      ],
      "payable": false,
      "stateMutability": "view",
      "type": "function"
    },
    {
      "constant": false,
      "inputs": [
        {
          "internalType": "string",
          "name": "_hash",
          "type": "string"
        }
      ],
      "name": "deleteVideo",
      "outputs": [
        {
          "internalType": "string",
          "name": "",
          "type": "string"
        },
        {
          "internalType": "string",
          "name": "",
          "type": "string"
        }
      ],
      "payable": false,
      "stateMutability": "nonpayable",
      "type": "function"
    },
    {
      "constant": false,
      "inputs": [
        {
          "internalType": "string",
          "name": "_videoHash",
          "type": "string"
        },
        {
          "internalType": "string",
          "name": "_title",
          "type": "string"
        }
      ],
      "name": "uploadVideo",
      "outputs": [],
      "payable": false,
      "stateMutability": "nonpayable",
      "type": "function"
    }
  ],
  "bytecode": "0x6080604052600080556040518060400160405280600681526020017f44566964656f000000000000000000000000000000000000000000000000000081525060019080519060200190620000559291906200006a565b503480156200006357600080fd5b5062000119565b828054600181600116156101000203166002900490600052602060002090601f016020900481019282601f10620000ad57805160ff1916838001178555620000de565b82800160010185558215620000de579182015b82811115620000dd578251825591602001919060010190620000c0565b5b509050620000ed9190620000f1565b5090565b6200011691905b8082111562000112576000816000905550600101620000f8565b5090565b90565b61131280620001296000396000f3fe608060405234801561001057600080fd5b50600436106100625760003560e01c806306fdde03146100675780638a5447c5146100ea578063972dc5a21461023c5780639766790f146103dc578063c61b5f4c1461057c578063e6821bf51461059a575b600080fd5b61006f6106e7565b6040518080602001828103825283818151815260200191508051906020019080838360005b838110156100af578082015181840152602081019050610094565b50505050905090810190601f1680156100dc5780820380516001836020036101000a031916815260200191505b509250505060405180910390f35b61023a6004803603604081101561010057600080fd5b810190808035906020019064010000000081111561011d57600080fd5b82018360208201111561012f57600080fd5b8035906020019184600183028401116401000000008311171561015157600080fd5b91908080601f016020809104026020016040519081016040528093929190818152602001838380828437600081840152601f19601f820116905080830192505050505050509192919290803590602001906401000000008111156101b457600080fd5b8201836020820111156101c657600080fd5b803590602001918460018302840111640100000000831117156101e857600080fd5b91908080601f016020809104026020016040519081016040528093929190818152602001838380828437600081840152601f19601f820116905080830192505050505050509192919290505050610785565b005b6102f56004803603602081101561025257600080fd5b810190808035906020019064010000000081111561026f57600080fd5b82018360208201111561028157600080fd5b803590602001918460018302840111640100000000831117156102a357600080fd5b91908080601f016020809104026020016040519081016040528093929190818152602001838380828437600081840152601f19601f820116905080830192505050505050509192919290505050610a82565b604051808060200180602001838103835285818151815260200191508051906020019080838360005b8381101561033957808201518184015260208101905061031e565b50505050905090810190601f1680156103665780820380516001836020036101000a031916815260200191505b50838103825284818151815260200191508051906020019080838360005b8381101561039f578082015181840152602081019050610384565b50505050905090810190601f1680156103cc5780820380516001836020036101000a031916815260200191505b5094505050505060405180910390f35b610495600480360360208110156103f257600080fd5b810190808035906020019064010000000081111561040f57600080fd5b82018360208201111561042157600080fd5b8035906020019184600183028401116401000000008311171561044357600080fd5b91908080601f016020809104026020016040519081016040528093929190818152602001838380828437600081840152601f19601f820116905080830192505050505050509192919290505050610ccc565b604051808060200180602001838103835285818151815260200191508051906020019080838360005b838110156104d95780820151818401526020810190506104be565b50505050905090810190601f1680156105065780820380516001836020036101000a031916815260200191505b50838103825284818151815260200191508051906020019080838360005b8381101561053f578082015181840152602081019050610524565b50505050905090810190601f16801561056c5780820380516001836020036101000a031916815260200191505b5094505050505060405180910390f35b61058461106a565b6040518082815260200191505060405180910390f35b6105c6600480360360208110156105b057600080fd5b8101908080359060200190929190505050611070565b6040518085815260200180602001806020018473ffffffffffffffffffffffffffffffffffffffff1673ffffffffffffffffffffffffffffffffffffffff168152602001838103835286818151815260200191508051906020019080838360005b83811015610642578082015181840152602081019050610627565b50505050905090810190601f16801561066f5780820380516001836020036101000a031916815260200191505b50838103825285818151815260200191508051906020019080838360005b838110156106a857808201518184015260208101905061068d565b50505050905090810190601f1680156106d55780820380516001836020036101000a031916815260200191505b50965050505050505060405180910390f35b60018054600181600116156101000203166002900480601f01602080910402602001604051908101604052809291908181526020018280546001816001161561010002031660029004801561077d5780601f106107525761010080835404028352916020019161077d565b820191906000526020600020905b81548152906001019060200180831161076057829003601f168201915b505050505081565b600082511161079357600080fd5b60008151116107a157600080fd5b600073ffffffffffffffffffffffffffffffffffffffff163373ffffffffffffffffffffffffffffffffffffffff1614156107db57600080fd5b6000808154809291906001019190505550604051806080016040528060005481526020018381526020018281526020013373ffffffffffffffffffffffffffffffffffffffff16815250600360008054815260200190815260200160002060008201518160000155602082015181600101908051906020019061085f9291906111f0565b50604082015181600201908051906020019061087c9291906111f0565b5060608201518160030160006101000a81548173ffffffffffffffffffffffffffffffffffffffff021916908373ffffffffffffffffffffffffffffffffffffffff1602179055509050506000546002836040518082805190602001908083835b6020831061090057805182526020820191506020810190506020830392506108dd565b6001836020036101000a0380198251168184511680821785525050505050509050019150509081526020016040518091039020819055507f2ee1eaccb920fd3acedcaa1650fcea6f00fa51e2253a8279a1d65ca4d0547ec66000548383336040518085815260200180602001806020018473ffffffffffffffffffffffffffffffffffffffff1673ffffffffffffffffffffffffffffffffffffffff168152602001838103835286818151815260200191508051906020019080838360005b838110156109da5780820151818401526020810190506109bf565b50505050905090810190601f168015610a075780820380516001836020036101000a031916815260200191505b50838103825285818151815260200191508051906020019080838360005b83811015610a40578082015181840152602081019050610a25565b50505050905090810190601f168015610a6d5780820380516001836020036101000a031916815260200191505b50965050505050505060405180910390a15050565b6060806000600360006002866040518082805190602001908083835b60208310610ac15780518252602082019150602081019050602083039250610a9e565b6001836020036101000a03801982511681845116808217855250505050505090500191505090815260200160405180910390205481526020019081526020016000206001018054600181600116156101000203166002900490501115610c7c57600360006002856040518082805190602001908083835b60208310610b5b5780518252602082019150602081019050602083039250610b38565b6001836020036101000a03801982511681845116808217855250505050505090500191505090815260200160405180910390205481526020019081526020016000206001016040518060400160405280600281526020017f4f4b00000000000000000000000000000000000000000000000000000000000081525090808054600181600116156101000203166002900480601f016020809104026020016040519081016040528092919081815260200182805460018160011615610100020316600290048015610c6c5780601f10610c4157610100808354040283529160200191610c6c565b820191906000526020600020905b815481529060010190602001808311610c4f57829003601f168201915b5050505050905091509150610cc7565b6040518060400160405280600681526020017f4e4f545f4f4b000000000000000000000000000000000000000000000000000081525060405180602001604052806000815250915091505b915091565b6060806000600360006002866040518082805190602001908083835b60208310610d0b5780518252602082019150602081019050602083039250610ce8565b6001836020036101000a03801982511681845116808217855250505050505090500191505090815260200160405180910390205481526020019081526020016000206001018054600181600116156101000203166002900490501115610ff457600360006002856040518082805190602001908083835b60208310610da55780518252602082019150602081019050602083039250610d82565b6001836020036101000a038019825116818451168082178552505050505050905001915050908152602001604051809103902054815260200190815260200160002060030160009054906101000a900473ffffffffffffffffffffffffffffffffffffffff1673ffffffffffffffffffffffffffffffffffffffff163373ffffffffffffffffffffffffffffffffffffffff161415610f7e57600360006002856040518082805190602001908083835b60208310610e785780518252602082019150602081019050602083039250610e55565b6001836020036101000a0380198251168184511680821785525050505050509050019150509081526020016040518091039020548152602001908152602001600020600080820160009055600182016000610ed39190611270565b600282016000610ee39190611270565b6003820160006101000a81549073ffffffffffffffffffffffffffffffffffffffff021916905550506002836040518082805190602001908083835b60208310610f425780518252602082019150602081019050602083039250610f1f565b6001836020036101000a038019825116818451168082178552505050505050905001915050908152602001604051809103902060009055610ff3565b6040518060400160405280600681526020017f4e4f545f4f4b00000000000000000000000000000000000000000000000000008152506040518060400160405280600c81526020017f556e617574686f72697a6564000000000000000000000000000000000000000081525091509150611065565b5b6040518060400160405280600681526020017f4e4f545f4f4b00000000000000000000000000000000000000000000000000008152506040518060400160405280600f81526020017f766964656f206e6f7420666f756e640000000000000000000000000000000000815250915091505b915091565b60005481565b6003602052806000526040600020600091509050806000015490806001018054600181600116156101000203166002900480601f0160208091040260200160405190810160405280929190818152602001828054600181600116156101000203166002900480156111225780601f106110f757610100808354040283529160200191611122565b820191906000526020600020905b81548152906001019060200180831161110557829003601f168201915b505050505090806002018054600181600116156101000203166002900480601f0160208091040260200160405190810160405280929190818152602001828054600181600116156101000203166002900480156111c05780601f10611195576101008083540402835291602001916111c0565b820191906000526020600020905b8154815290600101906020018083116111a357829003601f168201915b5050505050908060030160009054906101000a900473ffffffffffffffffffffffffffffffffffffffff16905084565b828054600181600116156101000203166002900490600052602060002090601f016020900481019282601f1061123157805160ff191683800117855561125f565b8280016001018555821561125f579182015b8281111561125e578251825591602001919060010190611243565b5b50905061126c91906112b8565b5090565b50805460018160011615610100020316600290046000825580601f1061129657506112b5565b601f0160209004906000526020600020908101906112b491906112b8565b5b50565b6112da91905b808211156112d65760008160009055506001016112be565b5090565b9056fea265627a7a72315820c3573ec78e3595983c2b610020349b33e2d59d0886f0992617a18c29ebf1f64864736f6c63430005100032",
  "source": "pragma solidity ^0.5.0;\n\n// [x] 1.Model the video\n// [x] 2.Store the video\n// [x] 3.Upload the video\n// [x] 4.List the video\n\ncontract DVideo {\n    uint256 public videoCount = 0;\n    string public name = \"DVideo\";\n    //Create id=>struct mapping\n    mapping(string => uint256) private videoHashToIndex;\n    mapping(uint256 => Video) public videos;\n\n    //Create Struct\n    struct Video {\n        uint256 id;\n        string videoHash;\n        string title;\n        address author;\n    }\n\n    //Create Event\n    event VideoUpload(\n        uint256 id,\n        string videoHash,\n        string title,\n        address author\n    );\n\n    constructor() public {}\n\n    function getVideo(string memory _hash)\n        public\n        view\n        returns (string memory, string memory)\n    {\n        if (bytes(videos[videoHashToIndex[_hash]].videoHash).length > 0) {\n            return (\"OK\", videos[videoHashToIndex[_hash]].videoHash);\n        }\n\n        return (\"NOT_OK\", \"\");\n    }\n\n    function deleteVideo(string memory _hash)\n        public\n        returns (string memory, string memory)\n    {\n        if (bytes(videos[videoHashToIndex[_hash]].videoHash).length > 0) {\n            if (msg.sender == videos[videoHashToIndex[_hash]].author) {\n                delete videos[videoHashToIndex[_hash]];\n                delete videoHashToIndex[_hash];\n            } else {\n                return (\"NOT_OK\", \"Unauthorized\");\n            }\n        }\n        return (\"NOT_OK\", \"video not found\");\n    }\n\n    function uploadVideo(string memory _videoHash, string memory _title)\n        public\n    {\n        // Make sure the video hash exists\n        require(bytes(_videoHash).length > 0);\n\n        // Make sure video title exists\n        require(bytes(_title).length > 0);\n\n        // Make sure uploader address exists\n        require(msg.sender != address(0));\n\n        // Increment video id\n        videoCount++;\n        // Add video to the contract\n        videos[videoCount] = Video(videoCount, _videoHash, _title, msg.sender);\n        videoHashToIndex[_videoHash] = videoCount;\n\n        // Trigger an event\n        emit VideoUpload(videoCount, _videoHash, _title, msg.sender);\n    }\n}\n",
  "sourcePath": "/home/hathapravera/mywork/DecentralizedYT--Blockchain/src/contracts/DVideo.sol",
  "compiler": {
    "name": "solc",
    "version": "0.5.16+commit.9c3226ce.Emscripten.clang"
  },
  "schemaVersion": "3.2.3",
  "updatedAt": "2020-12-05T12:25:06.242Z",
  "devdoc": {
    "methods": {}
  },
  "userdoc": {
    "methods": {}
  }
}