{
  "contractName": "DVideo",
  "abi": [
    {
      "inputs": [],
      "payable": false,
      "stateMutability": "nonpayable",
      "type": "constructor"
    },
    {
      "constant": true,
      "inputs": [],
      "name": "name",
      "outputs": [
        {
          "internalType": "string",
          "name": "",
          "type": "string"
        }
      ],
      "payable": false,
      "stateMutability": "view",
      "type": "function"
    },
    {
      "constant": true,
      "inputs": [],
      "name": "videoCount",
      "outputs": [
        {
          "internalType": "uint256",
          "name": "",
          "type": "uint256"
        }
      ],
      "payable": false,
      "stateMutability": "view",
      "type": "function"
    },
    {
      "constant": true,
      "inputs": [
        {
          "internalType": "string",
          "name": "",
          "type": "string"
        }
      ],
      "name": "videos",
      "outputs": [
        {
          "internalType": "uint256",
          "name": "id",
          "type": "uint256"
        },
        {
          "internalType": "string",
          "name": "hash",
          "type": "string"
        },
        {
          "internalType": "string",
          "name": "title",
          "type": "string"
        },
        {
          "internalType": "uint256",
          "name": "views",
          "type": "uint256"
        },
        {
          "internalType": "address",
          "name": "author",
          "type": "address"
        }
      ],
      "payable": false,
      "stateMutability": "view",
      "type": "function"
    },
    {
      "constant": false,
      "inputs": [
        {
          "internalType": "string",
          "name": "_videoHash",
          "type": "string"
        }
      ],
      "name": "viewed",
      "outputs": [
        {
          "internalType": "string",
          "name": "",
          "type": "string"
        },
        {
          "internalType": "uint256",
          "name": "",
          "type": "uint256"
        }
      ],
      "payable": false,
      "stateMutability": "nonpayable",
      "type": "function"
    },
    {
      "constant": true,
      "inputs": [
        {
          "internalType": "string",
          "name": "_videoHash",
          "type": "string"
        }
      ],
      "name": "getVideo",
      "outputs": [
        {
          "internalType": "string",
          "name": "",
          "type": "string"
        },
        {
          "internalType": "string",
          "name": "",
          "type": "string"
        },
        {
          "internalType": "string",
          "name": "",
          "type": "string"
        },
        {
          "internalType": "uint256",
          "name": "",
          "type": "uint256"
        }
      ],
      "payable": false,
      "stateMutability": "view",
      "type": "function"
    },
    {
      "constant": false,
      "inputs": [
        {
          "internalType": "string",
          "name": "_videoHash",
          "type": "string"
        },
        {
          "internalType": "string",
          "name": "_title",
          "type": "string"
        }
      ],
      "name": "uploadVideo",
      "outputs": [
        {
          "internalType": "string",
          "name": "",
          "type": "string"
        }
      ],
      "payable": false,
      "stateMutability": "nonpayable",
      "type": "function"
    }
  ],
  "bytecode": "0x6080604052600080556040518060400160405280600681526020017f44566964656f000000000000000000000000000000000000000000000000000081525060019080519060200190620000559291906200006a565b503480156200006357600080fd5b5062000119565b828054600181600116156101000203166002900490600052602060002090601f016020900481019282601f10620000ad57805160ff1916838001178555620000de565b82800160010185558215620000de579182015b82811115620000dd578251825591602001919060010190620000c0565b5b509050620000ed9190620000f1565b5090565b6200011691905b8082111562000112576000816000905550600101620000f8565b5090565b90565b61141680620001296000396000f3fe608060405234801561001057600080fd5b50600436106100625760003560e01c806306fdde031461006757806317e4feb0146100ea5780636ef4de9e146102255780638a5447c514610406578063972dc5a2146105d1578063c61b5f4c146107e4575b600080fd5b61006f610802565b6040518080602001828103825283818151815260200191508051906020019080838360005b838110156100af578082015181840152602081019050610094565b50505050905090810190601f1680156100dc5780820380516001836020036101000a031916815260200191505b509250505060405180910390f35b6101a36004803603602081101561010057600080fd5b810190808035906020019064010000000081111561011d57600080fd5b82018360208201111561012f57600080fd5b8035906020019184600183028401116401000000008311171561015157600080fd5b91908080601f016020809104026020016040519081016040528093929190818152602001838380828437600081840152601f19601f8201169050808301925050505050505091929192905050506108a0565b6040518080602001838152602001828103825284818151815260200191508051906020019080838360005b838110156101e95780820151818401526020810190506101ce565b50505050905090810190601f1680156102165780820380516001836020036101000a031916815260200191505b50935050505060405180910390f35b6102de6004803603602081101561023b57600080fd5b810190808035906020019064010000000081111561025857600080fd5b82018360208201111561026a57600080fd5b8035906020019184600183028401116401000000008311171561028c57600080fd5b91908080601f016020809104026020016040519081016040528093929190818152602001838380828437600081840152601f19601f820116905080830192505050505050509192919290505050610ae3565b6040518086815260200180602001806020018581526020018473ffffffffffffffffffffffffffffffffffffffff1673ffffffffffffffffffffffffffffffffffffffff168152602001838103835287818151815260200191508051906020019080838360005b83811015610360578082015181840152602081019050610345565b50505050905090810190601f16801561038d5780820380516001836020036101000a031916815260200191505b50838103825286818151815260200191508051906020019080838360005b838110156103c65780820151818401526020810190506103ab565b50505050905090810190601f1680156103f35780820380516001836020036101000a031916815260200191505b5097505050505050505060405180910390f35b6105566004803603604081101561041c57600080fd5b810190808035906020019064010000000081111561043957600080fd5b82018360208201111561044b57600080fd5b8035906020019184600183028401116401000000008311171561046d57600080fd5b91908080601f016020809104026020016040519081016040528093929190818152602001838380828437600081840152601f19601f820116905080830192505050505050509192919290803590602001906401000000008111156104d057600080fd5b8201836020820111156104e257600080fd5b8035906020019184600183028401116401000000008311171561050457600080fd5b91908080601f016020809104026020016040519081016040528093929190818152602001838380828437600081840152601f19601f820116905080830192505050505050509192919290505050610c7f565b6040518080602001828103825283818151815260200191508051906020019080838360005b8381101561059657808201518184015260208101905061057b565b50505050905090810190601f1680156105c35780820380516001836020036101000a031916815260200191505b509250505060405180910390f35b61068a600480360360208110156105e757600080fd5b810190808035906020019064010000000081111561060457600080fd5b82018360208201111561061657600080fd5b8035906020019184600183028401116401000000008311171561063857600080fd5b91908080601f016020809104026020016040519081016040528093929190818152602001838380828437600081840152601f19601f820116905080830192505050505050509192919290505050610f2e565b60405180806020018060200180602001858152602001848103845288818151815260200191508051906020019080838360005b838110156106d85780820151818401526020810190506106bd565b50505050905090810190601f1680156107055780820380516001836020036101000a031916815260200191505b50848103835287818151815260200191508051906020019080838360005b8381101561073e578082015181840152602081019050610723565b50505050905090810190601f16801561076b5780820380516001836020036101000a031916815260200191505b50848103825286818151815260200191508051906020019080838360005b838110156107a4578082015181840152602081019050610789565b50505050905090810190601f1680156107d15780820380516001836020036101000a031916815260200191505b5097505050505050505060405180910390f35b6107ec611336565b6040518082815260200191505060405180910390f35b60018054600181600116156101000203166002900480601f0160208091040260200160405190810160405280929190818152602001828054600181600116156101000203166002900480156108985780601f1061086d57610100808354040283529160200191610898565b820191906000526020600020905b81548152906001019060200180831161087b57829003601f168201915b505050505081565b60606000808351116108b157600080fd5b600073ffffffffffffffffffffffffffffffffffffffff163373ffffffffffffffffffffffffffffffffffffffff1614156108eb57600080fd5b60006002846040518082805190602001908083835b602083106109235780518252602082019150602081019050602083039250610900565b6001836020036101000a03801982511681845116808217855250505050505090500191505090815260200160405180910390206001018054600181600116156101000203166002900490501115610a9d576002836040518082805190602001908083835b602083106109aa5780518252602082019150602081019050602083039250610987565b6001836020036101000a0380198251168184511680821785525050505050509050019150509081526020016040518091039020600301600081548092919060010191905055506002836040518082805190602001908083835b60208310610a265780518252602082019150602081019050602083039250610a03565b6001836020036101000a0380198251168184511680821785525050505050509050019150509081526020016040518091039020600301546040518060400160405280600281526020017f4f4b0000000000000000000000000000000000000000000000000000000000008152509091509150610ade565b60006040518060400160405280600681526020017f4e4f545f4f4b000000000000000000000000000000000000000000000000000081525090809050915091505b915091565b600281805160208101820180518482526020830160208501208183528095505050505050600091509050806000015490806001018054600181600116156101000203166002900480601f016020809104026020016040519081016040528092919081815260200182805460018160011615610100020316600290048015610bab5780601f10610b8057610100808354040283529160200191610bab565b820191906000526020600020905b815481529060010190602001808311610b8e57829003601f168201915b505050505090806002018054600181600116156101000203166002900480601f016020809104026020016040519081016040528092919081815260200182805460018160011615610100020316600290048015610c495780601f10610c1e57610100808354040283529160200191610c49565b820191906000526020600020905b815481529060010190602001808311610c2c57829003601f168201915b5050505050908060030154908060040160009054906101000a900473ffffffffffffffffffffffffffffffffffffffff16905085565b60606000835111610c8f57600080fd5b6000825111610c9d57600080fd5b600073ffffffffffffffffffffffffffffffffffffffff163373ffffffffffffffffffffffffffffffffffffffff161415610cd757600080fd5b60008081548092919060010191905055506040518060a001604052806000548152602001848152602001838152602001600081526020013373ffffffffffffffffffffffffffffffffffffffff168152506002846040518082805190602001908083835b60208310610d5e5780518252602082019150602081019050602083039250610d3b565b6001836020036101000a0380198251168184511680821785525050505050509050019150509081526020016040518091039020600082015181600001556020820151816001019080519060200190610db792919061133c565b506040820151816002019080519060200190610dd492919061133c565b506060820151816003015560808201518160040160006101000a81548173ffffffffffffffffffffffffffffffffffffffff021916908373ffffffffffffffffffffffffffffffffffffffff16021790555090505060006002846040518082805190602001908083835b60208310610e615780518252602082019150602081019050602083039250610e3e565b6001836020036101000a03801982511681845116808217855250505050505090500191505090815260200160405180910390206001018054600181600116156101000203166002900490501115610eef576040518060400160405280600281526020017f4f4b0000000000000000000000000000000000000000000000000000000000008152509050610f28565b6040518060400160405280600681526020017f4e4f545f4f4b000000000000000000000000000000000000000000000000000081525090505b92915050565b6060806060600080855111610f4257600080fd5b600073ffffffffffffffffffffffffffffffffffffffff163373ffffffffffffffffffffffffffffffffffffffff161415610f7c57600080fd5b60006002866040518082805190602001908083835b60208310610fb45780518252602082019150602081019050602083039250610f91565b6001836020036101000a038019825116818451168082178552505050505050905001915050908152602001604051809103902060010180546001816001161561010002031660029004905011156112c8576002856040518082805190602001908083835b6020831061103b5780518252602082019150602081019050602083039250611018565b6001836020036101000a03801982511681845116808217855250505050505090500191505090815260200160405180910390206001016002866040518082805190602001908083835b602083106110a75780518252602082019150602081019050602083039250611084565b6001836020036101000a03801982511681845116808217855250505050505090500191505090815260200160405180910390206002016002876040518082805190602001908083835b6020831061111357805182526020820191506020810190506020830392506110f0565b6001836020036101000a0380198251168184511680821785525050505050509050019150509081526020016040518091039020600301546040518060400160405280600281526020017f4f4b000000000000000000000000000000000000000000000000000000000000815250929190828054600181600116156101000203166002900480601f0160208091040260200160405190810160405280929190818152602001828054600181600116156101000203166002900480156112185780601f106111ed57610100808354040283529160200191611218565b820191906000526020600020905b8154815290600101906020018083116111fb57829003601f168201915b50505050509250818054600181600116156101000203166002900480601f0160208091040260200160405190810160405280929190818152602001828054600181600116156101000203166002900480156112b45780601f10611289576101008083540402835291602001916112b4565b820191906000526020600020905b81548152906001019060200180831161129757829003601f168201915b50505050509150935093509350935061132f565b60006040518060400160405280600681526020017f4e4f545f4f4b0000000000000000000000000000000000000000000000000000815250906040518060200160405280600081525090604051806020016040528060008152509080905093509350935093505b9193509193565b60005481565b828054600181600116156101000203166002900490600052602060002090601f016020900481019282601f1061137d57805160ff19168380011785556113ab565b828001600101855582156113ab579182015b828111156113aa57825182559160200191906001019061138f565b5b5090506113b891906113bc565b5090565b6113de91905b808211156113da5760008160009055506001016113c2565b5090565b9056fea265627a7a723158204178b525cb3d6dced332bf474291415034ea864f47821b61959844e0c1f1b97e64736f6c63430005100032",
  "source": "pragma solidity ^0.5.0;\r\n\r\n// [x] 1.Model the video\r\n// [x] 2.Store the video\r\n// [x] 3.Upload the video\r\n// [x] 4.List the video\r\n\r\ncontract DVideo {\r\n    uint256 public videoCount = 0;\r\n    string public name = \"DVideo\";\r\n    //Create id=>struct mapping\r\n    mapping(string => Video) public videos;\r\n\r\n    //Create Struct\r\n    struct Video {\r\n        uint256 id;\r\n        string hash;\r\n        string title;\r\n        uint256 views;\r\n        // uint256 likes;\r\n        // uint256 disLikes;\r\n        address author;\r\n    }\r\n\r\n    //Create Event\r\n    // event VideoUpload(\r\n    //     uint256 id,\r\n    //     string hash,\r\n    //     string title,\r\n    //     uint256 views,\r\n    //     address author\r\n    // );\r\n\r\n    constructor() public {}\r\n\r\n    function viewed(string memory _videoHash)\r\n        public\r\n        returns (string memory, uint256)\r\n    {\r\n        // Make sure the video hash exists\r\n        require(bytes(_videoHash).length > 0);\r\n\r\n        // Make sure uploader address exists\r\n        require(msg.sender != address(0));\r\n\r\n        if (bytes(videos[_videoHash].hash).length > 0) {\r\n            videos[_videoHash].views++;\r\n            return (\"OK\", videos[_videoHash].views);\r\n        } else {\r\n            return (\"NOT_OK\", 0);\r\n        }\r\n    }\r\n\r\n    function getVideo(string memory _videoHash)\r\n        public\r\n        view\r\n        returns (\r\n            string memory,\r\n            string memory,\r\n            string memory,\r\n            uint256\r\n        )\r\n    {\r\n        // Make sure the video hash exists\r\n        require(bytes(_videoHash).length > 0);\r\n\r\n        // Make sure uploader address exists\r\n        require(msg.sender != address(0));\r\n\r\n        if (bytes(videos[_videoHash].hash).length > 0) {\r\n            return (\r\n                \"OK\",\r\n                videos[_videoHash].hash,\r\n                videos[_videoHash].title,\r\n                videos[_videoHash].views\r\n            );\r\n        } else {\r\n            return (\"NOT_OK\", \"\", \"\", 0);\r\n        }\r\n    }\r\n\r\n    // function liked(string memory _videoHash) public returns (uint256) {\r\n    //     // Make sure the video hash exists\r\n    //     require(bytes(_videoHash).length > 0);\r\n\r\n    //     // Make sure uploader address exists\r\n    //     require(msg.sender != address(0));\r\n\r\n    //     if (bytes(videos[_videoHash].hash).length > 0) {\r\n    //         videos[_videoHash].likes++;\r\n    //         return videos[_videoHash].likes;\r\n    //     } else {\r\n    //         return 0;\r\n    //     }\r\n    // }\r\n\r\n    // function disLiked(string memory _videoHash) public returns (uint256) {\r\n    //     // Make sure the video hash exists\r\n    //     require(bytes(_videoHash).length > 0);\r\n\r\n    //     // Make sure uploader address exists\r\n    //     require(msg.sender != address(0));\r\n\r\n    //     if (bytes(videos[_videoHash].hash).length > 0) {\r\n    //         videos[_videoHash].likes++;\r\n    //         return videos[_videoHash].likes;\r\n    //     } else {\r\n    //         return 0;\r\n    //     }\r\n    // }\r\n\r\n    function uploadVideo(string memory _videoHash, string memory _title)\r\n        public\r\n        returns (string memory)\r\n    {\r\n        // Make sure the video hash exists\r\n        require(bytes(_videoHash).length > 0);\r\n\r\n        // Make sure video title exists\r\n        require(bytes(_title).length > 0);\r\n\r\n        // Make sure uploader address exists\r\n        require(msg.sender != address(0));\r\n\r\n        // Increment video id\r\n        videoCount++;\r\n        // Add video to the contract\r\n        videos[_videoHash] = Video(\r\n            videoCount,\r\n            _videoHash,\r\n            _title,\r\n            0,\r\n            msg.sender\r\n        );\r\n\r\n        if (bytes(videos[_videoHash].hash).length > 0) {\r\n            // Trigger an event\r\n            // emit VideoUpload(videoCount, _videoHash, _title, 0, msg.sender);\r\n            return \"OK\";\r\n        } else {\r\n            return \"NOT_OK\";\r\n        }\r\n    }\r\n}\r\n",
  "sourcePath": "D:/MyWork/DecentralizedYT--Blockchain/src/contracts/DVideo.sol",
  "compiler": {
    "name": "solc",
    "version": "0.5.16+commit.9c3226ce.Emscripten.clang"
  },
  "schemaVersion": "3.2.3",
  "updatedAt": "2020-11-25T10:54:01.933Z",
  "networkType": "ethereum",
  "devdoc": {
    "methods": {}
  },
  "userdoc": {
    "methods": {}
  }
}