{
  "contractName": "DVideo",
  "abi": [
    {
      "inputs": [],
      "payable": false,
      "stateMutability": "nonpayable",
      "type": "constructor"
    },
    {
      "anonymous": false,
      "inputs": [
        {
          "indexed": false,
          "internalType": "uint256",
          "name": "id",
          "type": "uint256"
        },
        {
          "indexed": false,
          "internalType": "string",
          "name": "videoHash",
          "type": "string"
        },
        {
          "indexed": false,
          "internalType": "string",
          "name": "title",
          "type": "string"
        },
        {
          "indexed": false,
          "internalType": "address",
          "name": "author",
          "type": "address"
        }
      ],
      "name": "VideoUpload",
      "type": "event"
    },
    {
      "constant": true,
      "inputs": [],
      "name": "name",
      "outputs": [
        {
          "internalType": "string",
          "name": "",
          "type": "string"
        }
      ],
      "payable": false,
      "stateMutability": "view",
      "type": "function"
    },
    {
      "constant": true,
      "inputs": [],
      "name": "videoCount",
      "outputs": [
        {
          "internalType": "uint256",
          "name": "",
          "type": "uint256"
        }
      ],
      "payable": false,
      "stateMutability": "view",
      "type": "function"
    },
    {
      "constant": true,
      "inputs": [
        {
          "internalType": "uint256",
          "name": "",
          "type": "uint256"
        }
      ],
      "name": "videos",
      "outputs": [
        {
          "internalType": "uint256",
          "name": "id",
          "type": "uint256"
        },
        {
          "internalType": "string",
          "name": "videoHash",
          "type": "string"
        },
        {
          "internalType": "string",
          "name": "title",
          "type": "string"
        },
        {
          "internalType": "address",
          "name": "author",
          "type": "address"
        }
      ],
      "payable": false,
      "stateMutability": "view",
      "type": "function"
    },
    {
      "constant": true,
      "inputs": [
        {
          "internalType": "string",
          "name": "_hash",
          "type": "string"
        }
      ],
      "name": "getVideo",
      "outputs": [
        {
          "internalType": "string",
          "name": "",
          "type": "string"
        },
        {
          "internalType": "string",
          "name": "",
          "type": "string"
        }
      ],
      "payable": false,
      "stateMutability": "view",
      "type": "function"
    },
    {
      "constant": false,
      "inputs": [
        {
          "internalType": "string",
          "name": "_videoHash",
          "type": "string"
        },
        {
          "internalType": "string",
          "name": "_title",
          "type": "string"
        }
      ],
      "name": "uploadVideo",
      "outputs": [],
      "payable": false,
      "stateMutability": "nonpayable",
      "type": "function"
    }
  ],
  "bytecode": "0x6080604052600080556040518060400160405280600681526020017f44566964656f000000000000000000000000000000000000000000000000000081525060019080519060200190610053929190610066565b5034801561006057600080fd5b5061010b565b828054600181600116156101000203166002900490600052602060002090601f016020900481019282601f106100a757805160ff19168380011785556100d5565b828001600101855582156100d5579182015b828111156100d45782518255916020019190600101906100b9565b5b5090506100e291906100e6565b5090565b61010891905b808211156101045760008160009055506001016100ec565b5090565b90565b610d818061011a6000396000f3fe608060405234801561001057600080fd5b50600436106100575760003560e01c806306fdde031461005c5780638a5447c5146100df578063972dc5a214610231578063c61b5f4c146103d1578063e6821bf5146103ef575b600080fd5b61006461053c565b6040518080602001828103825283818151815260200191508051906020019080838360005b838110156100a4578082015181840152602081019050610089565b50505050905090810190601f1680156100d15780820380516001836020036101000a031916815260200191505b509250505060405180910390f35b61022f600480360360408110156100f557600080fd5b810190808035906020019064010000000081111561011257600080fd5b82018360208201111561012457600080fd5b8035906020019184600183028401116401000000008311171561014657600080fd5b91908080601f016020809104026020016040519081016040528093929190818152602001838380828437600081840152601f19601f820116905080830192505050505050509192919290803590602001906401000000008111156101a957600080fd5b8201836020820111156101bb57600080fd5b803590602001918460018302840111640100000000831117156101dd57600080fd5b91908080601f016020809104026020016040519081016040528093929190818152602001838380828437600081840152601f19601f8201169050808301925050505050505091929192905050506105da565b005b6102ea6004803603602081101561024757600080fd5b810190808035906020019064010000000081111561026457600080fd5b82018360208201111561027657600080fd5b8035906020019184600183028401116401000000008311171561029857600080fd5b91908080601f016020809104026020016040519081016040528093929190818152602001838380828437600081840152601f19601f8201169050808301925050505050505091929192905050506108d7565b604051808060200180602001838103835285818151815260200191508051906020019080838360005b8381101561032e578082015181840152602081019050610313565b50505050905090810190601f16801561035b5780820380516001836020036101000a031916815260200191505b50838103825284818151815260200191508051906020019080838360005b83811015610394578082015181840152602081019050610379565b50505050905090810190601f1680156103c15780820380516001836020036101000a031916815260200191505b5094505050505060405180910390f35b6103d9610b21565b6040518082815260200191505060405180910390f35b61041b6004803603602081101561040557600080fd5b8101908080359060200190929190505050610b27565b6040518085815260200180602001806020018473ffffffffffffffffffffffffffffffffffffffff1673ffffffffffffffffffffffffffffffffffffffff168152602001838103835286818151815260200191508051906020019080838360005b8381101561049757808201518184015260208101905061047c565b50505050905090810190601f1680156104c45780820380516001836020036101000a031916815260200191505b50838103825285818151815260200191508051906020019080838360005b838110156104fd5780820151818401526020810190506104e2565b50505050905090810190601f16801561052a5780820380516001836020036101000a031916815260200191505b50965050505050505060405180910390f35b60018054600181600116156101000203166002900480601f0160208091040260200160405190810160405280929190818152602001828054600181600116156101000203166002900480156105d25780601f106105a7576101008083540402835291602001916105d2565b820191906000526020600020905b8154815290600101906020018083116105b557829003601f168201915b505050505081565b60008251116105e857600080fd5b60008151116105f657600080fd5b600073ffffffffffffffffffffffffffffffffffffffff163373ffffffffffffffffffffffffffffffffffffffff16141561063057600080fd5b6000808154809291906001019190505550604051806080016040528060005481526020018381526020018281526020013373ffffffffffffffffffffffffffffffffffffffff1681525060036000805481526020019081526020016000206000820151816000015560208201518160010190805190602001906106b4929190610ca7565b5060408201518160020190805190602001906106d1929190610ca7565b5060608201518160030160006101000a81548173ffffffffffffffffffffffffffffffffffffffff021916908373ffffffffffffffffffffffffffffffffffffffff1602179055509050506000546002836040518082805190602001908083835b602083106107555780518252602082019150602081019050602083039250610732565b6001836020036101000a0380198251168184511680821785525050505050509050019150509081526020016040518091039020819055507f2ee1eaccb920fd3acedcaa1650fcea6f00fa51e2253a8279a1d65ca4d0547ec66000548383336040518085815260200180602001806020018473ffffffffffffffffffffffffffffffffffffffff1673ffffffffffffffffffffffffffffffffffffffff168152602001838103835286818151815260200191508051906020019080838360005b8381101561082f578082015181840152602081019050610814565b50505050905090810190601f16801561085c5780820380516001836020036101000a031916815260200191505b50838103825285818151815260200191508051906020019080838360005b8381101561089557808201518184015260208101905061087a565b50505050905090810190601f1680156108c25780820380516001836020036101000a031916815260200191505b50965050505050505060405180910390a15050565b6060806000600360006002866040518082805190602001908083835b6020831061091657805182526020820191506020810190506020830392506108f3565b6001836020036101000a03801982511681845116808217855250505050505090500191505090815260200160405180910390205481526020019081526020016000206001018054600181600116156101000203166002900490501115610ad157600360006002856040518082805190602001908083835b602083106109b0578051825260208201915060208101905060208303925061098d565b6001836020036101000a03801982511681845116808217855250505050505090500191505090815260200160405180910390205481526020019081526020016000206001016040518060400160405280600281526020017f4f4b00000000000000000000000000000000000000000000000000000000000081525090808054600181600116156101000203166002900480601f016020809104026020016040519081016040528092919081815260200182805460018160011615610100020316600290048015610ac15780601f10610a9657610100808354040283529160200191610ac1565b820191906000526020600020905b815481529060010190602001808311610aa457829003601f168201915b5050505050905091509150610b1c565b6040518060400160405280600681526020017f4e4f545f4f4b000000000000000000000000000000000000000000000000000081525060405180602001604052806000815250915091505b915091565b60005481565b6003602052806000526040600020600091509050806000015490806001018054600181600116156101000203166002900480601f016020809104026020016040519081016040528092919081815260200182805460018160011615610100020316600290048015610bd95780601f10610bae57610100808354040283529160200191610bd9565b820191906000526020600020905b815481529060010190602001808311610bbc57829003601f168201915b505050505090806002018054600181600116156101000203166002900480601f016020809104026020016040519081016040528092919081815260200182805460018160011615610100020316600290048015610c775780601f10610c4c57610100808354040283529160200191610c77565b820191906000526020600020905b815481529060010190602001808311610c5a57829003601f168201915b5050505050908060030160009054906101000a900473ffffffffffffffffffffffffffffffffffffffff16905084565b828054600181600116156101000203166002900490600052602060002090601f016020900481019282601f10610ce857805160ff1916838001178555610d16565b82800160010185558215610d16579182015b82811115610d15578251825591602001919060010190610cfa565b5b509050610d239190610d27565b5090565b610d4991905b80821115610d45576000816000905550600101610d2d565b5090565b9056fea265627a7a72315820dd0f149cfd1adbcc0b89b4d29d41b028ab253cd07c5bfd659f7c93557490fd3464736f6c63430005100032",
  "source": "pragma solidity ^0.5.0;\r\n\r\n// [x] 1.Model the video\r\n// [x] 2.Store the video\r\n// [x] 3.Upload the video\r\n// [x] 4.List the video\r\n\r\ncontract DVideo {\r\n    uint256 public videoCount = 0;\r\n    string public name = \"DVideo\";\r\n    //Create id=>struct mapping\r\n    mapping(string => uint256) private videoHashToIndex;\r\n    mapping(uint256 => Video) public videos;\r\n\r\n    //Create Struct\r\n    struct Video {\r\n        uint256 id;\r\n        string videoHash;\r\n        string title;\r\n        address author;\r\n    }\r\n\r\n    //Create Event\r\n    event VideoUpload(\r\n        uint256 id,\r\n        string videoHash,\r\n        string title,\r\n        address author\r\n    );\r\n\r\n    constructor() public {}\r\n\r\n    function getVideo(string memory _hash)\r\n        public\r\n        view\r\n        returns (string memory, string memory)\r\n    {\r\n        if (bytes(videos[videoHashToIndex[_hash]].videoHash).length > 0) {\r\n            return (\"OK\", videos[videoHashToIndex[_hash]].videoHash);\r\n        }\r\n\r\n        return (\"NOT_OK\", \"\");\r\n    }\r\n\r\n    function uploadVideo(string memory _videoHash, string memory _title)\r\n        public\r\n    {\r\n        // Make sure the video hash exists\r\n        require(bytes(_videoHash).length > 0);\r\n\r\n        // Make sure video title exists\r\n        require(bytes(_title).length > 0);\r\n\r\n        // Make sure uploader address exists\r\n        require(msg.sender != address(0));\r\n\r\n        // Increment video id\r\n        videoCount++;\r\n        // Add video to the contract\r\n        videos[videoCount] = Video(videoCount, _videoHash, _title, msg.sender);\r\n        videoHashToIndex[_videoHash] = videoCount;\r\n\r\n        // Trigger an event\r\n        emit VideoUpload(videoCount, _videoHash, _title, msg.sender);\r\n    }\r\n}\r\n",
  "sourcePath": "D:/MyWork/DecentralizedYT--Blockchain/src/contracts/DVideo.sol",
  "compiler": {
    "name": "solc",
    "version": "0.5.16+commit.9c3226ce.Emscripten.clang"
  },
  "schemaVersion": "3.2.3",
  "updatedAt": "2020-11-28T16:52:27.360Z",
  "networkType": "ethereum",
  "devdoc": {
    "methods": {}
  },
  "userdoc": {
    "methods": {}
  }
}