{
  "contractName": "User",
  "abi": [
    {
      "inputs": [],
      "payable": false,
      "stateMutability": "nonpayable",
      "type": "constructor"
    },
    {
      "anonymous": false,
      "inputs": [
        {
          "indexed": false,
          "internalType": "uint256",
          "name": "id",
          "type": "uint256"
        },
        {
          "indexed": false,
          "internalType": "string",
          "name": "name",
          "type": "string"
        },
        {
          "indexed": false,
          "internalType": "string",
          "name": "email",
          "type": "string"
        },
        {
          "indexed": false,
          "internalType": "address",
          "name": "wallet",
          "type": "address"
        }
      ],
      "name": "CreateUser",
      "type": "event"
    },
    {
      "constant": true,
      "inputs": [],
      "name": "name",
      "outputs": [
        {
          "internalType": "string",
          "name": "",
          "type": "string"
        }
      ],
      "payable": false,
      "stateMutability": "view",
      "type": "function"
    },
    {
      "constant": true,
      "inputs": [],
      "name": "userCount",
      "outputs": [
        {
          "internalType": "uint256",
          "name": "",
          "type": "uint256"
        }
      ],
      "payable": false,
      "stateMutability": "view",
      "type": "function"
    },
    {
      "constant": true,
      "inputs": [
        {
          "internalType": "uint256",
          "name": "",
          "type": "uint256"
        }
      ],
      "name": "users",
      "outputs": [
        {
          "internalType": "uint256",
          "name": "id",
          "type": "uint256"
        },
        {
          "internalType": "string",
          "name": "name",
          "type": "string"
        },
        {
          "internalType": "string",
          "name": "email",
          "type": "string"
        },
        {
          "internalType": "bytes32",
          "name": "passwordHash",
          "type": "bytes32"
        },
        {
          "internalType": "address",
          "name": "wallet",
          "type": "address"
        }
      ],
      "payable": false,
      "stateMutability": "view",
      "type": "function"
    },
    {
      "constant": false,
      "inputs": [
        {
          "internalType": "string",
          "name": "_name",
          "type": "string"
        },
        {
          "internalType": "string",
          "name": "_email",
          "type": "string"
        },
        {
          "internalType": "string",
          "name": "_password",
          "type": "string"
        }
      ],
      "name": "createUser",
      "outputs": [],
      "payable": false,
      "stateMutability": "nonpayable",
      "type": "function"
    }
  ],
  "bytecode": "0x6080604052600080556040518060400160405280600481526020017f557365720000000000000000000000000000000000000000000000000000000081525060019080519060200190610053929190610066565b5034801561006057600080fd5b5061010b565b828054600181600116156101000203166002900490600052602060002090601f016020900481019282601f106100a757805160ff19168380011785556100d5565b828001600101855582156100d5579182015b828111156100d45782518255916020019190600101906100b9565b5b5090506100e291906100e6565b5090565b61010891905b808211156101045760008160009055506001016100ec565b5090565b90565b610a568061011a6000396000f3fe608060405234801561001057600080fd5b506004361061004c5760003560e01c806306fdde031461005157806307973ccf146100d4578063365b98b2146100f257806359ae069b14610246575b600080fd5b61005961042f565b6040518080602001828103825283818151815260200191508051906020019080838360005b8381101561009957808201518184015260208101905061007e565b50505050905090810190601f1680156100c65780820380516001836020036101000a031916815260200191505b509250505060405180910390f35b6100dc6104cd565b6040518082815260200191505060405180910390f35b61011e6004803603602081101561010857600080fd5b81019080803590602001909291905050506104d3565b6040518086815260200180602001806020018581526020018473ffffffffffffffffffffffffffffffffffffffff1673ffffffffffffffffffffffffffffffffffffffff168152602001838103835287818151815260200191508051906020019080838360005b838110156101a0578082015181840152602081019050610185565b50505050905090810190601f1680156101cd5780820380516001836020036101000a031916815260200191505b50838103825286818151815260200191508051906020019080838360005b838110156102065780820151818401526020810190506101eb565b50505050905090810190601f1680156102335780820380516001836020036101000a031916815260200191505b5097505050505050505060405180910390f35b61042d6004803603606081101561025c57600080fd5b810190808035906020019064010000000081111561027957600080fd5b82018360208201111561028b57600080fd5b803590602001918460018302840111640100000000831117156102ad57600080fd5b91908080601f016020809104026020016040519081016040528093929190818152602001838380828437600081840152601f19601f8201169050808301925050505050505091929192908035906020019064010000000081111561031057600080fd5b82018360208201111561032257600080fd5b8035906020019184600183028401116401000000008311171561034457600080fd5b91908080601f016020809104026020016040519081016040528093929190818152602001838380828437600081840152601f19601f820116905080830192505050505050509192919290803590602001906401000000008111156103a757600080fd5b8201836020820111156103b957600080fd5b803590602001918460018302840111640100000000831117156103db57600080fd5b91908080601f016020809104026020016040519081016040528093929190818152602001838380828437600081840152601f19601f820116905080830192505050505050509192919290505050610659565b005b60018054600181600116156101000203166002900480601f0160208091040260200160405190810160405280929190818152602001828054600181600116156101000203166002900480156104c55780601f1061049a576101008083540402835291602001916104c5565b820191906000526020600020905b8154815290600101906020018083116104a857829003601f168201915b505050505081565b60005481565b6003602052806000526040600020600091509050806000015490806001018054600181600116156101000203166002900480601f0160208091040260200160405190810160405280929190818152602001828054600181600116156101000203166002900480156105855780601f1061055a57610100808354040283529160200191610585565b820191906000526020600020905b81548152906001019060200180831161056857829003601f168201915b505050505090806002018054600181600116156101000203166002900480601f0160208091040260200160405190810160405280929190818152602001828054600181600116156101000203166002900480156106235780601f106105f857610100808354040283529160200191610623565b820191906000526020600020905b81548152906001019060200180831161060657829003601f168201915b5050505050908060030154908060040160009054906101000a900473ffffffffffffffffffffffffffffffffffffffff16905085565b600083511161066757600080fd5b600082511161067557600080fd5b600081511161068357600080fd5b600073ffffffffffffffffffffffffffffffffffffffff163373ffffffffffffffffffffffffffffffffffffffff1614156106bd57600080fd5b60008081548092919060010191905055506040518060a001604052806000548152602001848152602001838152602001828051906020012081526020013373ffffffffffffffffffffffffffffffffffffffff16815250600360008054815260200190815260200160002060008201518160000155602082015181600101908051906020019061074e92919061097c565b50604082015181600201908051906020019061076b92919061097c565b506060820151816003015560808201518160040160006101000a81548173ffffffffffffffffffffffffffffffffffffffff021916908373ffffffffffffffffffffffffffffffffffffffff1602179055509050506000546002836040518082805190602001908083835b602083106107f957805182526020820191506020810190506020830392506107d6565b6001836020036101000a0380198251168184511680821785525050505050509050019150509081526020016040518091039020819055507f9b6ff1cbb8247d705f1a107ae8e1929ef3076cfcc021025b59989ada3b7a5a546000548484336040518085815260200180602001806020018473ffffffffffffffffffffffffffffffffffffffff1673ffffffffffffffffffffffffffffffffffffffff168152602001838103835286818151815260200191508051906020019080838360005b838110156108d35780820151818401526020810190506108b8565b50505050905090810190601f1680156109005780820380516001836020036101000a031916815260200191505b50838103825285818151815260200191508051906020019080838360005b8381101561093957808201518184015260208101905061091e565b50505050905090810190601f1680156109665780820380516001836020036101000a031916815260200191505b50965050505050505060405180910390a1505050565b828054600181600116156101000203166002900490600052602060002090601f016020900481019282601f106109bd57805160ff19168380011785556109eb565b828001600101855582156109eb579182015b828111156109ea5782518255916020019190600101906109cf565b5b5090506109f891906109fc565b5090565b610a1e91905b80821115610a1a576000816000905550600101610a02565b5090565b9056fea265627a7a72315820d986284b67652b57d61f841beb4100b21bbbac33e80998b9876dcfef2e129f4564736f6c63430005100032",
  "source": "pragma solidity ^0.5.0;\n\n// [x] 1.Model the video\n// [x] 2.Store the video\n// [x] 3.Upload the video\n// [x] 4.List the video\n\ncontract User {\n    uint256 public userCount = 0;\n    string public name = \"User\";\n    //Create id=>struct mapping\n    mapping(string => uint256) private userHashToIndex;\n    mapping(uint256 => Peer) public users;\n\n    //Create Struct\n    struct Peer {\n        uint256 id;\n        string name;\n        string email;\n        bytes32 passwordHash;\n        address wallet;\n    }\n\n    //Create Event\n    event CreateUser(uint256 id, string name, string email, address wallet);\n\n    constructor() public {}\n\n    // function getUser(string memory _email)\n    //     public\n    //     view\n    //     returns (string memory,  memory)\n    // {\n    //     if (bytes(users[userHashToIndex[_email]].email).length > 0) {\n    //         return (\"OK\", users[userHashToIndex[_email]]);\n    //     }\n\n    //     return (\"NOT_OK\", \"\");\n    // }\n\n    // function deleteVideo(string memory _hash)\n    //     public\n    //     returns (string memory, string memory)\n    // {\n    //     if (bytes(videos[videoHashToIndex[_hash]].videoHash).length > 0) {\n    //         if (msg.sender == videos[videoHashToIndex[_hash]].wallet) {\n    //             delete videos[videoHashToIndex[_hash]];\n    //             delete videoHashToIndex[_hash];\n    //         } else {\n    //             return (\"NOT_OK\", \"Unauthorized\");\n    //         }\n    //     }\n    //     return (\"NOT_OK\", \"video not found\");\n    // }\n\n    function createUser(\n        string memory _name,\n        string memory _email,\n        string memory _password\n    ) public {\n        // Make sure the name exists\n        require(bytes(_name).length > 0);\n\n        // Make sure email exists\n        require(bytes(_email).length > 0);\n\n        // Make sure password exists\n        require(bytes(_password).length > 0);\n\n        // Make sure uploader address exists\n        require(msg.sender != address(0));\n\n        // Increment user id\n        userCount++;\n        // Add user to the contract\n        users[userCount] = Peer(\n            userCount,\n            _name,\n            _email,\n            keccak256(bytes(_password)),\n            msg.sender\n        );\n        userHashToIndex[_email] = userCount;\n\n        // Trigger an event\n        emit CreateUser(userCount, _name, _email, msg.sender);\n    }\n}\n",
  "sourcePath": "/home/hathapravera/mywork/DecentralizedYT--Blockchain/src/contracts/User.sol",
  "compiler": {
    "name": "solc",
    "version": "0.5.16+commit.9c3226ce.Emscripten.clang"
  },
  "schemaVersion": "3.2.3",
  "updatedAt": "2020-12-05T12:25:06.246Z",
  "devdoc": {
    "methods": {}
  },
  "userdoc": {
    "methods": {}
  }
}